{
  "_format": "hh-sol-artifact-1",
  "contractName": "CarOwnership",
  "sourceName": "contracts/CarOwnership.sol",
  "abi": [
    {
      "inputs": [],
      "stateMutability": "nonpayable",
      "type": "constructor"
    },
    {
      "anonymous": false,
      "inputs": [
        {
          "indexed": false,
          "internalType": "string",
          "name": "_car_plate",
          "type": "string"
        }
      ],
      "name": "CarBuilt",
      "type": "event"
    },
    {
      "anonymous": false,
      "inputs": [
        {
          "indexed": true,
          "internalType": "address",
          "name": "_from",
          "type": "address"
        },
        {
          "indexed": true,
          "internalType": "address",
          "name": "_to",
          "type": "address"
        },
        {
          "indexed": false,
          "internalType": "string",
          "name": "_car_plate",
          "type": "string"
        }
      ],
      "name": "CarTransferred",
      "type": "event"
    },
    {
      "inputs": [
        {
          "internalType": "string",
          "name": "_car_plate",
          "type": "string"
        }
      ],
      "name": "buildCar",
      "outputs": [],
      "stateMutability": "nonpayable",
      "type": "function"
    },
    {
      "inputs": [],
      "name": "getOwner",
      "outputs": [
        {
          "internalType": "address",
          "name": "",
          "type": "address"
        }
      ],
      "stateMutability": "view",
      "type": "function"
    },
    {
      "inputs": [],
      "name": "owner",
      "outputs": [
        {
          "internalType": "address",
          "name": "",
          "type": "address"
        }
      ],
      "stateMutability": "view",
      "type": "function"
    },
    {
      "inputs": [
        {
          "internalType": "address",
          "name": "_account",
          "type": "address"
        },
        {
          "internalType": "string",
          "name": "_plate",
          "type": "string"
        }
      ],
      "name": "ownsCar",
      "outputs": [
        {
          "internalType": "bool",
          "name": "",
          "type": "bool"
        }
      ],
      "stateMutability": "view",
      "type": "function"
    },
    {
      "inputs": [
        {
          "internalType": "address",
          "name": "_to",
          "type": "address"
        },
        {
          "internalType": "string",
          "name": "_car_plate",
          "type": "string"
        }
      ],
      "name": "transferCar",
      "outputs": [],
      "stateMutability": "nonpayable",
      "type": "function"
    }
  ],
  "bytecode": "0x608060405234801561001057600080fd5b50336000806101000a81548173ffffffffffffffffffffffffffffffffffffffff021916908373ffffffffffffffffffffffffffffffffffffffff160217905550610811806100606000396000f3fe608060405234801561001057600080fd5b50600436106100575760003560e01c806383a369aa1461005c578063893d20e8146100785780638da5cb5b14610096578063bb97c257146100b4578063f69378e7146100d0575b600080fd5b61007660048036038101906100719190610513565b610100565b005b6100806101d3565b60405161008d91906105a1565b60405180910390f35b61009e6101fc565b6040516100ab91906105a1565b60405180910390f35b6100ce60048036038101906100c991906105e8565b610220565b005b6100ea60048036038101906100e591906105e8565b61042e565b6040516100f79190610663565b60405180910390f35b60018060008060009054906101000a900473ffffffffffffffffffffffffffffffffffffffff1673ffffffffffffffffffffffffffffffffffffffff1673ffffffffffffffffffffffffffffffffffffffff16815260200190815260200160002083836040516101719291906106bd565b908152602001604051809103902060006101000a81548160ff0219169083151502179055507fd0c5d033591937cf59c6e7a97b03a0da5cb23b2ac0d4d19db7041777b5c137bc82826040516101c7929190610725565b60405180910390a15050565b60008060009054906101000a900473ffffffffffffffffffffffffffffffffffffffff16905090565b60008054906101000a900473ffffffffffffffffffffffffffffffffffffffff1681565b6000600160003373ffffffffffffffffffffffffffffffffffffffff1673ffffffffffffffffffffffffffffffffffffffff16815260200190815260200160002083836040516102719291906106bd565b908152602001604051809103902060009054906101000a900460ff16905060011515811515146102d6576040517f08c379a00000000000000000000000000000000000000000000000000000000081526004016102cd906107bb565b60405180910390fd5b60018060008673ffffffffffffffffffffffffffffffffffffffff1673ffffffffffffffffffffffffffffffffffffffff16815260200190815260200160002084846040516103269291906106bd565b908152602001604051809103902060006101000a81548160ff0219169083151502179055506000600160003373ffffffffffffffffffffffffffffffffffffffff1673ffffffffffffffffffffffffffffffffffffffff168152602001908152602001600020848460405161039c9291906106bd565b908152602001604051809103902060006101000a81548160ff0219169083151502179055508373ffffffffffffffffffffffffffffffffffffffff163373ffffffffffffffffffffffffffffffffffffffff167fa1a333928f06d186508e7b8505dd14910e1a252071fd254a6e87a5c421373fbd8585604051610420929190610725565b60405180910390a350505050565b6000600160008573ffffffffffffffffffffffffffffffffffffffff1673ffffffffffffffffffffffffffffffffffffffff168152602001908152602001600020838360405161047f9291906106bd565b908152602001604051809103902060009054906101000a900460ff1690509392505050565b600080fd5b600080fd5b600080fd5b600080fd5b600080fd5b60008083601f8401126104d3576104d26104ae565b5b8235905067ffffffffffffffff8111156104f0576104ef6104b3565b5b60208301915083600182028301111561050c5761050b6104b8565b5b9250929050565b6000806020838503121561052a576105296104a4565b5b600083013567ffffffffffffffff811115610548576105476104a9565b5b610554858286016104bd565b92509250509250929050565b600073ffffffffffffffffffffffffffffffffffffffff82169050919050565b600061058b82610560565b9050919050565b61059b81610580565b82525050565b60006020820190506105b66000830184610592565b92915050565b6105c581610580565b81146105d057600080fd5b50565b6000813590506105e2816105bc565b92915050565b600080600060408486031215610601576106006104a4565b5b600061060f868287016105d3565b935050602084013567ffffffffffffffff8111156106305761062f6104a9565b5b61063c868287016104bd565b92509250509250925092565b60008115159050919050565b61065d81610648565b82525050565b60006020820190506106786000830184610654565b92915050565b600081905092915050565b82818337600083830152505050565b60006106a4838561067e565b93506106b1838584610689565b82840190509392505050565b60006106ca828486610698565b91508190509392505050565b600082825260208201905092915050565b6000601f19601f8301169050919050565b600061070483856106d6565b9350610711838584610689565b61071a836106e7565b840190509392505050565b600060208201905081810360008301526107408184866106f8565b90509392505050565b7f746865206d6573736167652073656e646572206973206e6f74206e65206f776e60008201527f6572206f66207468652063617200000000000000000000000000000000000000602082015250565b60006107a5602d836106d6565b91506107b082610749565b604082019050919050565b600060208201905081810360008301526107d481610798565b905091905056fea2646970667358221220d7150d0b4b52d466e92729e6efe03bbad60a095bf02f56b7261d25653cd1a9fc64736f6c63430008180033",
  "linkReferences": {},
  "deployedLinkReferences": {}
}