{
  "_format": "hh-sol-artifact-1",
  "contractName": "CarOwnership",
  "sourceName": "contracts/CarOwnership.sol",
  "abi": [
    {
      "inputs": [],
      "stateMutability": "nonpayable",
      "type": "constructor"
    },
    {
      "anonymous": false,
      "inputs": [
        {
          "indexed": false,
          "internalType": "string",
          "name": "_car_plate",
          "type": "string"
        }
      ],
      "name": "CarBuilt",
      "type": "event"
    },
    {
      "anonymous": false,
      "inputs": [
        {
          "indexed": true,
          "internalType": "address",
          "name": "_from",
          "type": "address"
        },
        {
          "indexed": true,
          "internalType": "address",
          "name": "_to",
          "type": "address"
        },
        {
          "indexed": false,
          "internalType": "string",
          "name": "_car_plate",
          "type": "string"
        }
      ],
      "name": "Transfer",
      "type": "event"
    },
    {
      "inputs": [
        {
          "internalType": "string",
          "name": "_car_plate",
          "type": "string"
        }
      ],
      "name": "buildCar",
      "outputs": [],
      "stateMutability": "nonpayable",
      "type": "function"
    },
    {
      "inputs": [],
      "name": "getOwner",
      "outputs": [
        {
          "internalType": "address",
          "name": "",
          "type": "address"
        }
      ],
      "stateMutability": "view",
      "type": "function"
    },
    {
      "inputs": [],
      "name": "owner",
      "outputs": [
        {
          "internalType": "address",
          "name": "",
          "type": "address"
        }
      ],
      "stateMutability": "view",
      "type": "function"
    },
    {
      "inputs": [
        {
          "internalType": "address",
          "name": "_account",
          "type": "address"
        },
        {
          "internalType": "string",
          "name": "_plate",
          "type": "string"
        }
      ],
      "name": "ownsCar",
      "outputs": [
        {
          "internalType": "bool",
          "name": "",
          "type": "bool"
        }
      ],
      "stateMutability": "view",
      "type": "function"
    },
    {
      "inputs": [
        {
          "internalType": "address",
          "name": "_to",
          "type": "address"
        },
        {
          "internalType": "string",
          "name": "_car_plate",
          "type": "string"
        }
      ],
      "name": "transfer",
      "outputs": [],
      "stateMutability": "nonpayable",
      "type": "function"
    }
  ],
  "bytecode": "0x608060405234801561001057600080fd5b50336000806101000a81548173ffffffffffffffffffffffffffffffffffffffff021916908373ffffffffffffffffffffffffffffffffffffffff160217905550610811806100606000396000f3fe608060405234801561001057600080fd5b50600436106100575760003560e01c8063098866491461005c57806383a369aa14610078578063893d20e8146100945780638da5cb5b146100b2578063f69378e7146100d0575b600080fd5b61007660048036038101906100719190610571565b610100565b005b610092600480360381019061008d91906105d1565b61030e565b005b61009c6103e1565b6040516100a9919061062d565b60405180910390f35b6100ba61040a565b6040516100c7919061062d565b60405180910390f35b6100ea60048036038101906100e59190610571565b61042e565b6040516100f79190610663565b60405180910390f35b6000600160003373ffffffffffffffffffffffffffffffffffffffff1673ffffffffffffffffffffffffffffffffffffffff16815260200190815260200160002083836040516101519291906106bd565b908152602001604051809103902060009054906101000a900460ff16905060011515811515146101b6576040517f08c379a00000000000000000000000000000000000000000000000000000000081526004016101ad90610759565b60405180910390fd5b60018060008673ffffffffffffffffffffffffffffffffffffffff1673ffffffffffffffffffffffffffffffffffffffff16815260200190815260200160002084846040516102069291906106bd565b908152602001604051809103902060006101000a81548160ff0219169083151502179055506000600160003373ffffffffffffffffffffffffffffffffffffffff1673ffffffffffffffffffffffffffffffffffffffff168152602001908152602001600020848460405161027c9291906106bd565b908152602001604051809103902060006101000a81548160ff0219169083151502179055508373ffffffffffffffffffffffffffffffffffffffff163373ffffffffffffffffffffffffffffffffffffffff167f55e10366a5f552746106978b694d7ef3bbddec06bd5f9b9d15ad46f475c653ef85856040516103009291906107b7565b60405180910390a350505050565b60018060008060009054906101000a900473ffffffffffffffffffffffffffffffffffffffff1673ffffffffffffffffffffffffffffffffffffffff1673ffffffffffffffffffffffffffffffffffffffff168152602001908152602001600020838360405161037f9291906106bd565b908152602001604051809103902060006101000a81548160ff0219169083151502179055507fd0c5d033591937cf59c6e7a97b03a0da5cb23b2ac0d4d19db7041777b5c137bc82826040516103d59291906107b7565b60405180910390a15050565b60008060009054906101000a900473ffffffffffffffffffffffffffffffffffffffff16905090565b60008054906101000a900473ffffffffffffffffffffffffffffffffffffffff1681565b6000600160008573ffffffffffffffffffffffffffffffffffffffff1673ffffffffffffffffffffffffffffffffffffffff168152602001908152602001600020838360405161047f9291906106bd565b908152602001604051809103902060009054906101000a900460ff1690509392505050565b600080fd5b600080fd5b600073ffffffffffffffffffffffffffffffffffffffff82169050919050565b60006104d9826104ae565b9050919050565b6104e9816104ce565b81146104f457600080fd5b50565b600081359050610506816104e0565b92915050565b600080fd5b600080fd5b600080fd5b60008083601f8401126105315761053061050c565b5b8235905067ffffffffffffffff81111561054e5761054d610511565b5b60208301915083600182028301111561056a57610569610516565b5b9250929050565b60008060006040848603121561058a576105896104a4565b5b6000610598868287016104f7565b935050602084013567ffffffffffffffff8111156105b9576105b86104a9565b5b6105c58682870161051b565b92509250509250925092565b600080602083850312156105e8576105e76104a4565b5b600083013567ffffffffffffffff811115610606576106056104a9565b5b6106128582860161051b565b92509250509250929050565b610627816104ce565b82525050565b6000602082019050610642600083018461061e565b92915050565b60008115159050919050565b61065d81610648565b82525050565b60006020820190506106786000830184610654565b92915050565b600081905092915050565b82818337600083830152505050565b60006106a4838561067e565b93506106b1838584610689565b82840190509392505050565b60006106ca828486610698565b91508190509392505050565b600082825260208201905092915050565b7f746865206d6573736167652073656e646572206973206e6f74206e65206f776e60008201527f6572206f66207468652063617200000000000000000000000000000000000000602082015250565b6000610743602d836106d6565b915061074e826106e7565b604082019050919050565b6000602082019050818103600083015261077281610736565b9050919050565b6000601f19601f8301169050919050565b600061079683856106d6565b93506107a3838584610689565b6107ac83610779565b840190509392505050565b600060208201905081810360008301526107d281848661078a565b9050939250505056fea264697066735822122009ce4fc160926658eeb24ce0d4d48a687c8d13fd51c7be74676b94080735e41564736f6c63430008180033",
  "linkReferences": {},
  "deployedLinkReferences": {}
}