{
  "_format": "hh-sol-artifact-1",
  "contractName": "CarOwnership",
  "sourceName": "contracts/CarOwnership.sol",
  "abi": [
    {
      "inputs": [],
      "stateMutability": "nonpayable",
      "type": "constructor"
    },
    {
      "anonymous": false,
      "inputs": [
        {
          "indexed": true,
          "internalType": "address",
          "name": "_from",
          "type": "address"
        },
        {
          "indexed": true,
          "internalType": "address",
          "name": "_to",
          "type": "address"
        },
        {
          "indexed": false,
          "internalType": "string",
          "name": "_car_plate",
          "type": "string"
        }
      ],
      "name": "Transfer",
      "type": "event"
    },
    {
      "inputs": [
        {
          "internalType": "string",
          "name": "_plate",
          "type": "string"
        }
      ],
      "name": "buildCar",
      "outputs": [],
      "stateMutability": "nonpayable",
      "type": "function"
    },
    {
      "inputs": [],
      "name": "getOwner",
      "outputs": [
        {
          "internalType": "address",
          "name": "",
          "type": "address"
        }
      ],
      "stateMutability": "view",
      "type": "function"
    },
    {
      "inputs": [],
      "name": "owner",
      "outputs": [
        {
          "internalType": "address",
          "name": "",
          "type": "address"
        }
      ],
      "stateMutability": "view",
      "type": "function"
    },
    {
      "inputs": [
        {
          "internalType": "address",
          "name": "_account",
          "type": "address"
        },
        {
          "internalType": "string",
          "name": "_plate",
          "type": "string"
        }
      ],
      "name": "ownsCar",
      "outputs": [
        {
          "internalType": "bool",
          "name": "",
          "type": "bool"
        }
      ],
      "stateMutability": "view",
      "type": "function"
    },
    {
      "inputs": [
        {
          "internalType": "address",
          "name": "_to",
          "type": "address"
        },
        {
          "internalType": "string",
          "name": "_car_plate",
          "type": "string"
        }
      ],
      "name": "transfer",
      "outputs": [],
      "stateMutability": "nonpayable",
      "type": "function"
    }
  ],
  "bytecode": "0x608060405234801561001057600080fd5b50336000806101000a81548173ffffffffffffffffffffffffffffffffffffffff021916908373ffffffffffffffffffffffffffffffffffffffff1602179055506107d8806100606000396000f3fe608060405234801561001057600080fd5b50600436106100575760003560e01c8063098866491461005c57806383a369aa14610078578063893d20e8146100945780638da5cb5b146100b2578063f69378e7146100d0575b600080fd5b61007660048036038101906100719190610538565b610100565b005b610092600480360381019061008d9190610598565b61030e565b005b61009c6103a8565b6040516100a991906105f4565b60405180910390f35b6100ba6103d1565b6040516100c791906105f4565b60405180910390f35b6100ea60048036038101906100e59190610538565b6103f5565b6040516100f7919061062a565b60405180910390f35b6000600160003373ffffffffffffffffffffffffffffffffffffffff1673ffffffffffffffffffffffffffffffffffffffff1681526020019081526020016000208383604051610151929190610684565b908152602001604051809103902060009054906101000a900460ff16905060011515811515146101b6576040517f08c379a00000000000000000000000000000000000000000000000000000000081526004016101ad90610720565b60405180910390fd5b60018060008673ffffffffffffffffffffffffffffffffffffffff1673ffffffffffffffffffffffffffffffffffffffff1681526020019081526020016000208484604051610206929190610684565b908152602001604051809103902060006101000a81548160ff0219169083151502179055506000600160003373ffffffffffffffffffffffffffffffffffffffff1673ffffffffffffffffffffffffffffffffffffffff168152602001908152602001600020848460405161027c929190610684565b908152602001604051809103902060006101000a81548160ff0219169083151502179055508373ffffffffffffffffffffffffffffffffffffffff163373ffffffffffffffffffffffffffffffffffffffff167f55e10366a5f552746106978b694d7ef3bbddec06bd5f9b9d15ad46f475c653ef858560405161030092919061077e565b60405180910390a350505050565b60018060008060009054906101000a900473ffffffffffffffffffffffffffffffffffffffff1673ffffffffffffffffffffffffffffffffffffffff1673ffffffffffffffffffffffffffffffffffffffff168152602001908152602001600020838360405161037f929190610684565b908152602001604051809103902060006101000a81548160ff0219169083151502179055505050565b60008060009054906101000a900473ffffffffffffffffffffffffffffffffffffffff16905090565b60008054906101000a900473ffffffffffffffffffffffffffffffffffffffff1681565b6000600160008573ffffffffffffffffffffffffffffffffffffffff1673ffffffffffffffffffffffffffffffffffffffff1681526020019081526020016000208383604051610446929190610684565b908152602001604051809103902060009054906101000a900460ff1690509392505050565b600080fd5b600080fd5b600073ffffffffffffffffffffffffffffffffffffffff82169050919050565b60006104a082610475565b9050919050565b6104b081610495565b81146104bb57600080fd5b50565b6000813590506104cd816104a7565b92915050565b600080fd5b600080fd5b600080fd5b60008083601f8401126104f8576104f76104d3565b5b8235905067ffffffffffffffff811115610515576105146104d8565b5b602083019150836001820283011115610531576105306104dd565b5b9250929050565b6000806000604084860312156105515761055061046b565b5b600061055f868287016104be565b935050602084013567ffffffffffffffff8111156105805761057f610470565b5b61058c868287016104e2565b92509250509250925092565b600080602083850312156105af576105ae61046b565b5b600083013567ffffffffffffffff8111156105cd576105cc610470565b5b6105d9858286016104e2565b92509250509250929050565b6105ee81610495565b82525050565b600060208201905061060960008301846105e5565b92915050565b60008115159050919050565b6106248161060f565b82525050565b600060208201905061063f600083018461061b565b92915050565b600081905092915050565b82818337600083830152505050565b600061066b8385610645565b9350610678838584610650565b82840190509392505050565b600061069182848661065f565b91508190509392505050565b600082825260208201905092915050565b7f746865206d6573736167652073656e646572206973206e6f74206e65206f776e60008201527f6572206f66207468652063617200000000000000000000000000000000000000602082015250565b600061070a602d8361069d565b9150610715826106ae565b604082019050919050565b60006020820190508181036000830152610739816106fd565b9050919050565b6000601f19601f8301169050919050565b600061075d838561069d565b935061076a838584610650565b61077383610740565b840190509392505050565b60006020820190508181036000830152610799818486610751565b9050939250505056fea264697066735822122025b1ce4f10c4c0c6a7869dc3230a7cefc85268eb250e2823c3101509988f471164736f6c63430008180033",
  "linkReferences": {},
  "deployedLinkReferences": {}
}