{
  "_format": "hh-sol-artifact-1",
  "contractName": "CarOwnership",
  "sourceName": "contracts/CarOwnership.sol",
  "abi": [
    {
      "inputs": [],
      "stateMutability": "nonpayable",
      "type": "constructor"
    },
    {
      "anonymous": false,
      "inputs": [
        {
          "indexed": false,
          "internalType": "string",
          "name": "_car_plate",
          "type": "string"
        }
      ],
      "name": "CarBuilt",
      "type": "event"
    },
    {
      "anonymous": false,
      "inputs": [
        {
          "indexed": true,
          "internalType": "address",
          "name": "_from",
          "type": "address"
        },
        {
          "indexed": true,
          "internalType": "address",
          "name": "_to",
          "type": "address"
        },
        {
          "indexed": false,
          "internalType": "string",
          "name": "_car_plate",
          "type": "string"
        }
      ],
      "name": "CarTransferred",
      "type": "event"
    },
    {
      "stateMutability": "payable",
      "type": "fallback"
    },
    {
      "inputs": [
        {
          "internalType": "string",
          "name": "_car_plate",
          "type": "string"
        }
      ],
      "name": "buildCar",
      "outputs": [],
      "stateMutability": "nonpayable",
      "type": "function"
    },
    {
      "inputs": [],
      "name": "getBalance",
      "outputs": [
        {
          "internalType": "uint256",
          "name": "",
          "type": "uint256"
        }
      ],
      "stateMutability": "view",
      "type": "function"
    },
    {
      "inputs": [
        {
          "internalType": "string",
          "name": "_car_plate",
          "type": "string"
        }
      ],
      "name": "getCarOwner",
      "outputs": [
        {
          "internalType": "address",
          "name": "",
          "type": "address"
        }
      ],
      "stateMutability": "view",
      "type": "function"
    },
    {
      "inputs": [],
      "name": "getOwner",
      "outputs": [
        {
          "internalType": "address",
          "name": "",
          "type": "address"
        }
      ],
      "stateMutability": "view",
      "type": "function"
    },
    {
      "inputs": [],
      "name": "owner",
      "outputs": [
        {
          "internalType": "address",
          "name": "",
          "type": "address"
        }
      ],
      "stateMutability": "view",
      "type": "function"
    },
    {
      "inputs": [
        {
          "internalType": "address",
          "name": "_to",
          "type": "address"
        },
        {
          "internalType": "string",
          "name": "_car_plate",
          "type": "string"
        }
      ],
      "name": "transferCar",
      "outputs": [],
      "stateMutability": "nonpayable",
      "type": "function"
    },
    {
      "stateMutability": "payable",
      "type": "receive"
    }
  ],
  "bytecode": "0x608060405234801561001057600080fd5b50336000806101000a81548173ffffffffffffffffffffffffffffffffffffffff021916908373ffffffffffffffffffffffffffffffffffffffff1602179055506107b2806100606000396000f3fe6080604052600436106100595760003560e01c80630b8cf8d11461006257806312065fe01461009f57806383a369aa146100ca578063893d20e8146100f35780638da5cb5b1461011e578063bb97c2571461014957610060565b3661006057005b005b34801561006e57600080fd5b50610089600480360381019061008491906104b6565b610172565b6040516100969190610544565b60405180910390f35b3480156100ab57600080fd5b506100b46101bd565b6040516100c19190610578565b60405180910390f35b3480156100d657600080fd5b506100f160048036038101906100ec91906104b6565b6101c5565b005b3480156100ff57600080fd5b50610108610281565b6040516101159190610544565b60405180910390f35b34801561012a57600080fd5b506101336102aa565b6040516101409190610544565b60405180910390f35b34801561015557600080fd5b50610170600480360381019061016b91906105bf565b6102ce565b005b60006001838360405161018692919061065e565b908152602001604051809103902060009054906101000a900473ffffffffffffffffffffffffffffffffffffffff16905092915050565b600047905090565b60008054906101000a900473ffffffffffffffffffffffffffffffffffffffff16600183836040516101f892919061065e565b908152602001604051809103902060006101000a81548173ffffffffffffffffffffffffffffffffffffffff021916908373ffffffffffffffffffffffffffffffffffffffff1602179055507fd0c5d033591937cf59c6e7a97b03a0da5cb23b2ac0d4d19db7041777b5c137bc82826040516102759291906106c6565b60405180910390a15050565b60008060009054906101000a900473ffffffffffffffffffffffffffffffffffffffff16905090565b60008054906101000a900473ffffffffffffffffffffffffffffffffffffffff1681565b3373ffffffffffffffffffffffffffffffffffffffff16600183836040516102f792919061065e565b908152602001604051809103902060009054906101000a900473ffffffffffffffffffffffffffffffffffffffff1673ffffffffffffffffffffffffffffffffffffffff161461037c576040517f08c379a00000000000000000000000000000000000000000000000000000000081526004016103739061075c565b60405180910390fd5b826001838360405161038f92919061065e565b908152602001604051809103902060006101000a81548173ffffffffffffffffffffffffffffffffffffffff021916908373ffffffffffffffffffffffffffffffffffffffff1602179055508273ffffffffffffffffffffffffffffffffffffffff163373ffffffffffffffffffffffffffffffffffffffff167fa1a333928f06d186508e7b8505dd14910e1a252071fd254a6e87a5c421373fbd848460405161043a9291906106c6565b60405180910390a3505050565b600080fd5b600080fd5b600080fd5b600080fd5b600080fd5b60008083601f84011261047657610475610451565b5b8235905067ffffffffffffffff81111561049357610492610456565b5b6020830191508360018202830111156104af576104ae61045b565b5b9250929050565b600080602083850312156104cd576104cc610447565b5b600083013567ffffffffffffffff8111156104eb576104ea61044c565b5b6104f785828601610460565b92509250509250929050565b600073ffffffffffffffffffffffffffffffffffffffff82169050919050565b600061052e82610503565b9050919050565b61053e81610523565b82525050565b60006020820190506105596000830184610535565b92915050565b6000819050919050565b6105728161055f565b82525050565b600060208201905061058d6000830184610569565b92915050565b61059c81610523565b81146105a757600080fd5b50565b6000813590506105b981610593565b92915050565b6000806000604084860312156105d8576105d7610447565b5b60006105e6868287016105aa565b935050602084013567ffffffffffffffff8111156106075761060661044c565b5b61061386828701610460565b92509250509250925092565b600081905092915050565b82818337600083830152505050565b6000610645838561061f565b935061065283858461062a565b82840190509392505050565b600061066b828486610639565b91508190509392505050565b600082825260208201905092915050565b6000601f19601f8301169050919050565b60006106a58385610677565b93506106b283858461062a565b6106bb83610688565b840190509392505050565b600060208201905081810360008301526106e1818486610699565b90509392505050565b7f746865206d6573736167652073656e646572206973206e6f74206e65206f776e60008201527f6572206f66207468652063617200000000000000000000000000000000000000602082015250565b6000610746602d83610677565b9150610751826106ea565b604082019050919050565b6000602082019050818103600083015261077581610739565b905091905056fea26469706673582212203f51c4a40070c1c88c9eb56822db6d67d79ea497bcfc7c005ee7f02f66fce4f964736f6c63430008180033",
  "linkReferences": {},
  "deployedLinkReferences": {}
}