{
  "_format": "hh-sol-artifact-1",
  "contractName": "CarOwnership",
  "sourceName": "contracts/CarOwnership.sol",
  "abi": [
    {
      "inputs": [],
      "stateMutability": "nonpayable",
      "type": "constructor"
    },
    {
      "anonymous": false,
      "inputs": [
        {
          "indexed": false,
          "internalType": "string",
          "name": "_car_plate",
          "type": "string"
        },
        {
          "indexed": false,
          "internalType": "uint256",
          "name": "_car_price",
          "type": "uint256"
        }
      ],
      "name": "CarBuilt",
      "type": "event"
    },
    {
      "anonymous": false,
      "inputs": [
        {
          "indexed": true,
          "internalType": "address",
          "name": "_from",
          "type": "address"
        },
        {
          "indexed": true,
          "internalType": "address",
          "name": "_to",
          "type": "address"
        },
        {
          "indexed": false,
          "internalType": "string",
          "name": "_car_plate",
          "type": "string"
        }
      ],
      "name": "CarTransferred",
      "type": "event"
    },
    {
      "stateMutability": "payable",
      "type": "fallback"
    },
    {
      "inputs": [
        {
          "internalType": "string",
          "name": "_car_plate",
          "type": "string"
        },
        {
          "internalType": "uint256",
          "name": "_car_price",
          "type": "uint256"
        }
      ],
      "name": "buildCar",
      "outputs": [],
      "stateMutability": "nonpayable",
      "type": "function"
    },
    {
      "inputs": [],
      "name": "getBalance",
      "outputs": [
        {
          "internalType": "uint256",
          "name": "",
          "type": "uint256"
        }
      ],
      "stateMutability": "view",
      "type": "function"
    },
    {
      "inputs": [
        {
          "internalType": "string",
          "name": "_car_plate",
          "type": "string"
        }
      ],
      "name": "getCarOwner",
      "outputs": [
        {
          "internalType": "address",
          "name": "",
          "type": "address"
        }
      ],
      "stateMutability": "view",
      "type": "function"
    },
    {
      "inputs": [
        {
          "internalType": "string",
          "name": "_car_plate",
          "type": "string"
        }
      ],
      "name": "getCarPrice",
      "outputs": [
        {
          "internalType": "uint256",
          "name": "",
          "type": "uint256"
        }
      ],
      "stateMutability": "view",
      "type": "function"
    },
    {
      "inputs": [],
      "name": "getOwner",
      "outputs": [
        {
          "internalType": "address",
          "name": "",
          "type": "address"
        }
      ],
      "stateMutability": "view",
      "type": "function"
    },
    {
      "inputs": [],
      "name": "owner",
      "outputs": [
        {
          "internalType": "address",
          "name": "",
          "type": "address"
        }
      ],
      "stateMutability": "view",
      "type": "function"
    },
    {
      "inputs": [
        {
          "internalType": "address",
          "name": "_to",
          "type": "address"
        },
        {
          "internalType": "string",
          "name": "_car_plate",
          "type": "string"
        }
      ],
      "name": "transferCar",
      "outputs": [],
      "stateMutability": "nonpayable",
      "type": "function"
    },
    {
      "stateMutability": "payable",
      "type": "receive"
    }
  ],
  "bytecode": "0x608060405234801561001057600080fd5b50336000806101000a81548173ffffffffffffffffffffffffffffffffffffffff021916908373ffffffffffffffffffffffffffffffffffffffff160217905550610a16806100606000396000f3fe6080604052600436106100745760003560e01c806364813de81161004e57806364813de81461010e578063893d20e81461014b5780638da5cb5b14610176578063bb97c257146101a15761007b565b80630b8cf8d11461007d57806312065fe0146100ba5780632a774aad146100e55761007b565b3661007b57005b005b34801561008957600080fd5b506100a4600480360381019061009f91906105ca565b6101ca565b6040516100b19190610658565b60405180910390f35b3480156100c657600080fd5b506100cf610215565b6040516100dc919061068c565b60405180910390f35b3480156100f157600080fd5b5061010c600480360381019061010791906106d3565b61021d565b005b34801561011a57600080fd5b50610135600480360381019061013091906105ca565b610301565b604051610142919061068c565b60405180910390f35b34801561015757600080fd5b5061016061032c565b60405161016d9190610658565b60405180910390f35b34801561018257600080fd5b5061018b610355565b6040516101989190610658565b60405180910390f35b3480156101ad57600080fd5b506101c860048036038101906101c3919061075f565b610379565b005b6000600283836040516101de9291906107fe565b908152602001604051809103902060009054906101000a900473ffffffffffffffffffffffffffffffffffffffff16905092915050565b600047905090565b60008054906101000a900473ffffffffffffffffffffffffffffffffffffffff16600284846040516102509291906107fe565b908152602001604051809103902060006101000a81548173ffffffffffffffffffffffffffffffffffffffff021916908373ffffffffffffffffffffffffffffffffffffffff16021790555080600184846040516102af9291906107fe565b9081526020016040518091039020819055507fe8ff6102570ebf899e9ae77b3a4a1b0c85d57dbb701dfbff7f82ec4228f33a768383836040516102f493929190610866565b60405180910390a1505050565b6000600183836040516103159291906107fe565b908152602001604051809103902054905092915050565b60008060009054906101000a900473ffffffffffffffffffffffffffffffffffffffff16905090565b60008054906101000a900473ffffffffffffffffffffffffffffffffffffffff1681565b3373ffffffffffffffffffffffffffffffffffffffff16600283836040516103a29291906107fe565b908152602001604051809103902060009054906101000a900473ffffffffffffffffffffffffffffffffffffffff1673ffffffffffffffffffffffffffffffffffffffff1614610427576040517f08c379a000000000000000000000000000000000000000000000000000000000815260040161041e9061090a565b60405180910390fd5b600182826040516104399291906107fe565b908152602001604051809103902054610450610215565b14610490576040517f08c379a00000000000000000000000000000000000000000000000000000000081526004016104879061099c565b60405180910390fd5b82600283836040516104a39291906107fe565b908152602001604051809103902060006101000a81548173ffffffffffffffffffffffffffffffffffffffff021916908373ffffffffffffffffffffffffffffffffffffffff1602179055508273ffffffffffffffffffffffffffffffffffffffff163373ffffffffffffffffffffffffffffffffffffffff167fa1a333928f06d186508e7b8505dd14910e1a252071fd254a6e87a5c421373fbd848460405161054e9291906109bc565b60405180910390a3505050565b600080fd5b600080fd5b600080fd5b600080fd5b600080fd5b60008083601f84011261058a57610589610565565b5b8235905067ffffffffffffffff8111156105a7576105a661056a565b5b6020830191508360018202830111156105c3576105c261056f565b5b9250929050565b600080602083850312156105e1576105e061055b565b5b600083013567ffffffffffffffff8111156105ff576105fe610560565b5b61060b85828601610574565b92509250509250929050565b600073ffffffffffffffffffffffffffffffffffffffff82169050919050565b600061064282610617565b9050919050565b61065281610637565b82525050565b600060208201905061066d6000830184610649565b92915050565b6000819050919050565b61068681610673565b82525050565b60006020820190506106a1600083018461067d565b92915050565b6106b081610673565b81146106bb57600080fd5b50565b6000813590506106cd816106a7565b92915050565b6000806000604084860312156106ec576106eb61055b565b5b600084013567ffffffffffffffff81111561070a57610709610560565b5b61071686828701610574565b93509350506020610729868287016106be565b9150509250925092565b61073c81610637565b811461074757600080fd5b50565b60008135905061075981610733565b92915050565b6000806000604084860312156107785761077761055b565b5b60006107868682870161074a565b935050602084013567ffffffffffffffff8111156107a7576107a6610560565b5b6107b386828701610574565b92509250509250925092565b600081905092915050565b82818337600083830152505050565b60006107e583856107bf565b93506107f28385846107ca565b82840190509392505050565b600061080b8284866107d9565b91508190509392505050565b600082825260208201905092915050565b6000601f19601f8301169050919050565b60006108458385610817565b93506108528385846107ca565b61085b83610828565b840190509392505050565b60006040820190508181036000830152610881818587610839565b9050610890602083018461067d565b949350505050565b7f746865206d6573736167652073656e646572206973206e6f74206e65206f776e60008201527f6572206f66207468652063617200000000000000000000000000000000000000602082015250565b60006108f4602d83610817565b91506108ff82610898565b604082019050919050565b60006020820190508181036000830152610923816108e7565b9050919050565b7f7468657265206172652070726f626c656d73207769746820746865207061796d60008201527f656e740000000000000000000000000000000000000000000000000000000000602082015250565b6000610986602383610817565b91506109918261092a565b604082019050919050565b600060208201905081810360008301526109b581610979565b9050919050565b600060208201905081810360008301526109d7818486610839565b9050939250505056fea2646970667358221220f06e35ff20efed1d39bba47a01b8ac7a8ad41b5510082deab5c8344e6d29187564736f6c63430008180033",
  "linkReferences": {},
  "deployedLinkReferences": {}
}