{
  "_format": "hh-sol-artifact-1",
  "contractName": "CarOwnership",
  "sourceName": "contracts/CarOwnership.sol",
  "abi": [
    {
      "inputs": [],
      "stateMutability": "nonpayable",
      "type": "constructor"
    },
    {
      "anonymous": false,
      "inputs": [
        {
          "indexed": false,
          "internalType": "string",
          "name": "_car_plate",
          "type": "string"
        }
      ],
      "name": "CarBuilt",
      "type": "event"
    },
    {
      "anonymous": false,
      "inputs": [
        {
          "indexed": true,
          "internalType": "address",
          "name": "_from",
          "type": "address"
        },
        {
          "indexed": true,
          "internalType": "address",
          "name": "_to",
          "type": "address"
        },
        {
          "indexed": false,
          "internalType": "string",
          "name": "_car_plate",
          "type": "string"
        }
      ],
      "name": "CarTransferred",
      "type": "event"
    },
    {
      "stateMutability": "payable",
      "type": "fallback"
    },
    {
      "inputs": [
        {
          "internalType": "string",
          "name": "_car_plate",
          "type": "string"
        }
      ],
      "name": "buildCar",
      "outputs": [],
      "stateMutability": "nonpayable",
      "type": "function"
    },
    {
      "inputs": [
        {
          "internalType": "address",
          "name": "_address",
          "type": "address"
        }
      ],
      "name": "getAddressBalance",
      "outputs": [
        {
          "internalType": "uint256",
          "name": "",
          "type": "uint256"
        }
      ],
      "stateMutability": "view",
      "type": "function"
    },
    {
      "inputs": [],
      "name": "getBalance",
      "outputs": [
        {
          "internalType": "uint256",
          "name": "",
          "type": "uint256"
        }
      ],
      "stateMutability": "view",
      "type": "function"
    },
    {
      "inputs": [
        {
          "internalType": "string",
          "name": "_car_plate",
          "type": "string"
        }
      ],
      "name": "getCarOwner",
      "outputs": [
        {
          "internalType": "address",
          "name": "",
          "type": "address"
        }
      ],
      "stateMutability": "view",
      "type": "function"
    },
    {
      "inputs": [],
      "name": "getOwner",
      "outputs": [
        {
          "internalType": "address",
          "name": "",
          "type": "address"
        }
      ],
      "stateMutability": "view",
      "type": "function"
    },
    {
      "inputs": [],
      "name": "owner",
      "outputs": [
        {
          "internalType": "address",
          "name": "",
          "type": "address"
        }
      ],
      "stateMutability": "view",
      "type": "function"
    },
    {
      "inputs": [
        {
          "internalType": "address payable",
          "name": "_to",
          "type": "address"
        }
      ],
      "name": "transferAmount",
      "outputs": [],
      "stateMutability": "payable",
      "type": "function"
    },
    {
      "inputs": [
        {
          "internalType": "address",
          "name": "_to",
          "type": "address"
        },
        {
          "internalType": "string",
          "name": "_car_plate",
          "type": "string"
        }
      ],
      "name": "transferCar",
      "outputs": [],
      "stateMutability": "nonpayable",
      "type": "function"
    },
    {
      "stateMutability": "payable",
      "type": "receive"
    }
  ],
  "bytecode": "0x608060405234801561001057600080fd5b50336000806101000a81548173ffffffffffffffffffffffffffffffffffffffff021916908373ffffffffffffffffffffffffffffffffffffffff160217905550610a54806100606000396000f3fe60806040526004361061007f5760003560e01c8063893d20e81161004e578063893d20e8146101565780638da5cb5b146101815780639717552f146101ac578063bb97c257146101c857610086565b80630b8cf8d11461008857806312065fe0146100c557806335046722146100f057806383a369aa1461012d57610086565b3661008657005b005b34801561009457600080fd5b506100af60048036038101906100aa919061062e565b6101f1565b6040516100bc91906106bc565b60405180910390f35b3480156100d157600080fd5b506100da61023c565b6040516100e791906106f0565b60405180910390f35b3480156100fc57600080fd5b5061011760048036038101906101129190610737565b610244565b60405161012491906106f0565b60405180910390f35b34801561013957600080fd5b50610154600480360381019061014f919061062e565b610265565b005b34801561016257600080fd5b5061016b610321565b60405161017891906106bc565b60405180910390f35b34801561018d57600080fd5b5061019661034a565b6040516101a391906106bc565b60405180910390f35b6101c660048036038101906101c191906107a2565b61036e565b005b3480156101d457600080fd5b506101ef60048036038101906101ea91906107cf565b610446565b005b60006001838360405161020592919061086e565b908152602001604051809103902060009054906101000a900473ffffffffffffffffffffffffffffffffffffffff16905092915050565b600047905090565b60008173ffffffffffffffffffffffffffffffffffffffff16319050919050565b60008054906101000a900473ffffffffffffffffffffffffffffffffffffffff166001838360405161029892919061086e565b908152602001604051809103902060006101000a81548173ffffffffffffffffffffffffffffffffffffffff021916908373ffffffffffffffffffffffffffffffffffffffff1602179055507fd0c5d033591937cf59c6e7a97b03a0da5cb23b2ac0d4d19db7041777b5c137bc82826040516103159291906108d6565b60405180910390a15050565b60008060009054906101000a900473ffffffffffffffffffffffffffffffffffffffff16905090565b60008054906101000a900473ffffffffffffffffffffffffffffffffffffffff1681565b60008054906101000a900473ffffffffffffffffffffffffffffffffffffffff1673ffffffffffffffffffffffffffffffffffffffff168173ffffffffffffffffffffffffffffffffffffffff16146103fc576040517f08c379a00000000000000000000000000000000000000000000000000000000081526004016103f39061096c565b60405180910390fd5b8073ffffffffffffffffffffffffffffffffffffffff166108fc349081150290604051600060405180830381858888f19350505050158015610442573d6000803e3d6000fd5b5050565b3373ffffffffffffffffffffffffffffffffffffffff166001838360405161046f92919061086e565b908152602001604051809103902060009054906101000a900473ffffffffffffffffffffffffffffffffffffffff1673ffffffffffffffffffffffffffffffffffffffff16146104f4576040517f08c379a00000000000000000000000000000000000000000000000000000000081526004016104eb906109fe565b60405180910390fd5b826001838360405161050792919061086e565b908152602001604051809103902060006101000a81548173ffffffffffffffffffffffffffffffffffffffff021916908373ffffffffffffffffffffffffffffffffffffffff1602179055508273ffffffffffffffffffffffffffffffffffffffff163373ffffffffffffffffffffffffffffffffffffffff167fa1a333928f06d186508e7b8505dd14910e1a252071fd254a6e87a5c421373fbd84846040516105b29291906108d6565b60405180910390a3505050565b600080fd5b600080fd5b600080fd5b600080fd5b600080fd5b60008083601f8401126105ee576105ed6105c9565b5b8235905067ffffffffffffffff81111561060b5761060a6105ce565b5b602083019150836001820283011115610627576106266105d3565b5b9250929050565b60008060208385031215610645576106446105bf565b5b600083013567ffffffffffffffff811115610663576106626105c4565b5b61066f858286016105d8565b92509250509250929050565b600073ffffffffffffffffffffffffffffffffffffffff82169050919050565b60006106a68261067b565b9050919050565b6106b68161069b565b82525050565b60006020820190506106d160008301846106ad565b92915050565b6000819050919050565b6106ea816106d7565b82525050565b600060208201905061070560008301846106e1565b92915050565b6107148161069b565b811461071f57600080fd5b50565b6000813590506107318161070b565b92915050565b60006020828403121561074d5761074c6105bf565b5b600061075b84828501610722565b91505092915050565b600061076f8261067b565b9050919050565b61077f81610764565b811461078a57600080fd5b50565b60008135905061079c81610776565b92915050565b6000602082840312156107b8576107b76105bf565b5b60006107c68482850161078d565b91505092915050565b6000806000604084860312156107e8576107e76105bf565b5b60006107f686828701610722565b935050602084013567ffffffffffffffff811115610817576108166105c4565b5b610823868287016105d8565b92509250509250925092565b600081905092915050565b82818337600083830152505050565b6000610855838561082f565b935061086283858461083a565b82840190509392505050565b600061087b828486610849565b91508190509392505050565b600082825260208201905092915050565b6000601f19601f8301169050919050565b60006108b58385610887565b93506108c283858461083a565b6108cb83610898565b840190509392505050565b600060208201905081810360008301526108f18184866108a9565b90509392505050565b7f666f756e64732063616e206265207472616e73666572726564206f6e6c79207460008201527f6f2074686520636f6e7472616374206f776e6572000000000000000000000000602082015250565b6000610956603483610887565b9150610961826108fa565b604082019050919050565b6000602082019050818103600083015261098581610949565b9050919050565b7f746865206d6573736167652073656e646572206973206e6f74206e65206f776e60008201527f6572206f66207468652063617200000000000000000000000000000000000000602082015250565b60006109e8602d83610887565b91506109f38261098c565b604082019050919050565b60006020820190508181036000830152610a17816109db565b905091905056fea264697066735822122068724f3a835e4ec77b78b90ac2159fd8b40df1f302811494b0367e32b589394f64736f6c63430008180033",
  "linkReferences": {},
  "deployedLinkReferences": {}
}